{
  "_format": "hh-sol-artifact-1",
  "contractName": "FakeUSDC",
  "sourceName": "contracts/util/FakeUSDC.sol",
  "abi": [
    {
      "inputs": [],
      "stateMutability": "nonpayable",
      "type": "constructor"
    },
    {
      "inputs": [
        {
          "internalType": "address",
          "name": "spender",
          "type": "address"
        },
        {
          "internalType": "uint256",
          "name": "allowance",
          "type": "uint256"
        },
        {
          "internalType": "uint256",
          "name": "needed",
          "type": "uint256"
        }
      ],
      "name": "ERC20InsufficientAllowance",
      "type": "error"
    },
    {
      "inputs": [
        {
          "internalType": "address",
          "name": "sender",
          "type": "address"
        },
        {
          "internalType": "uint256",
          "name": "balance",
          "type": "uint256"
        },
        {
          "internalType": "uint256",
          "name": "needed",
          "type": "uint256"
        }
      ],
      "name": "ERC20InsufficientBalance",
      "type": "error"
    },
    {
      "inputs": [
        {
          "internalType": "address",
          "name": "approver",
          "type": "address"
        }
      ],
      "name": "ERC20InvalidApprover",
      "type": "error"
    },
    {
      "inputs": [
        {
          "internalType": "address",
          "name": "receiver",
          "type": "address"
        }
      ],
      "name": "ERC20InvalidReceiver",
      "type": "error"
    },
    {
      "inputs": [
        {
          "internalType": "address",
          "name": "sender",
          "type": "address"
        }
      ],
      "name": "ERC20InvalidSender",
      "type": "error"
    },
    {
      "inputs": [
        {
          "internalType": "address",
          "name": "spender",
          "type": "address"
        }
      ],
      "name": "ERC20InvalidSpender",
      "type": "error"
    },
    {
      "inputs": [
        {
          "internalType": "address",
          "name": "owner",
          "type": "address"
        }
      ],
      "name": "OwnableInvalidOwner",
      "type": "error"
    },
    {
      "inputs": [
        {
          "internalType": "address",
          "name": "account",
          "type": "address"
        }
      ],
      "name": "OwnableUnauthorizedAccount",
      "type": "error"
    },
    {
      "anonymous": false,
      "inputs": [
        {
          "indexed": true,
          "internalType": "address",
          "name": "owner",
          "type": "address"
        },
        {
          "indexed": true,
          "internalType": "address",
          "name": "spender",
          "type": "address"
        },
        {
          "indexed": false,
          "internalType": "uint256",
          "name": "value",
          "type": "uint256"
        }
      ],
      "name": "Approval",
      "type": "event"
    },
    {
      "anonymous": false,
      "inputs": [
        {
          "indexed": true,
          "internalType": "address",
          "name": "previousOwner",
          "type": "address"
        },
        {
          "indexed": true,
          "internalType": "address",
          "name": "newOwner",
          "type": "address"
        }
      ],
      "name": "OwnershipTransferred",
      "type": "event"
    },
    {
      "anonymous": false,
      "inputs": [
        {
          "indexed": true,
          "internalType": "address",
          "name": "from",
          "type": "address"
        },
        {
          "indexed": true,
          "internalType": "address",
          "name": "to",
          "type": "address"
        },
        {
          "indexed": false,
          "internalType": "uint256",
          "name": "value",
          "type": "uint256"
        }
      ],
      "name": "Transfer",
      "type": "event"
    },
    {
      "inputs": [
        {
          "internalType": "address",
          "name": "owner",
          "type": "address"
        },
        {
          "internalType": "address",
          "name": "spender",
          "type": "address"
        }
      ],
      "name": "allowance",
      "outputs": [
        {
          "internalType": "uint256",
          "name": "",
          "type": "uint256"
        }
      ],
      "stateMutability": "view",
      "type": "function"
    },
    {
      "inputs": [
        {
          "internalType": "address",
          "name": "spender",
          "type": "address"
        },
        {
          "internalType": "uint256",
          "name": "value",
          "type": "uint256"
        }
      ],
      "name": "approve",
      "outputs": [
        {
          "internalType": "bool",
          "name": "",
          "type": "bool"
        }
      ],
      "stateMutability": "nonpayable",
      "type": "function"
    },
    {
      "inputs": [
        {
          "internalType": "address",
          "name": "account",
          "type": "address"
        }
      ],
      "name": "balanceOf",
      "outputs": [
        {
          "internalType": "uint256",
          "name": "",
          "type": "uint256"
        }
      ],
      "stateMutability": "view",
      "type": "function"
    },
    {
      "inputs": [],
      "name": "decimals",
      "outputs": [
        {
          "internalType": "uint8",
          "name": "",
          "type": "uint8"
        }
      ],
      "stateMutability": "view",
      "type": "function"
    },
    {
      "inputs": [
        {
          "internalType": "address",
          "name": "to",
          "type": "address"
        },
        {
          "internalType": "uint256",
          "name": "amount",
          "type": "uint256"
        }
      ],
      "name": "mint",
      "outputs": [],
      "stateMutability": "nonpayable",
      "type": "function"
    },
    {
      "inputs": [
        {
          "internalType": "address",
          "name": "to",
          "type": "address"
        }
      ],
      "name": "mintOnce",
      "outputs": [],
      "stateMutability": "nonpayable",
      "type": "function"
    },
    {
      "inputs": [
        {
          "internalType": "address",
          "name": "",
          "type": "address"
        }
      ],
      "name": "minted",
      "outputs": [
        {
          "internalType": "bool",
          "name": "",
          "type": "bool"
        }
      ],
      "stateMutability": "view",
      "type": "function"
    },
    {
      "inputs": [],
      "name": "name",
      "outputs": [
        {
          "internalType": "string",
          "name": "",
          "type": "string"
        }
      ],
      "stateMutability": "view",
      "type": "function"
    },
    {
      "inputs": [],
      "name": "owner",
      "outputs": [
        {
          "internalType": "address",
          "name": "",
          "type": "address"
        }
      ],
      "stateMutability": "view",
      "type": "function"
    },
    {
      "inputs": [],
      "name": "renounceOwnership",
      "outputs": [],
      "stateMutability": "nonpayable",
      "type": "function"
    },
    {
      "inputs": [],
      "name": "symbol",
      "outputs": [
        {
          "internalType": "string",
          "name": "",
          "type": "string"
        }
      ],
      "stateMutability": "view",
      "type": "function"
    },
    {
      "inputs": [],
      "name": "totalSupply",
      "outputs": [
        {
          "internalType": "uint256",
          "name": "",
          "type": "uint256"
        }
      ],
      "stateMutability": "view",
      "type": "function"
    },
    {
      "inputs": [
        {
          "internalType": "address",
          "name": "to",
          "type": "address"
        },
        {
          "internalType": "uint256",
          "name": "value",
          "type": "uint256"
        }
      ],
      "name": "transfer",
      "outputs": [
        {
          "internalType": "bool",
          "name": "",
          "type": "bool"
        }
      ],
      "stateMutability": "nonpayable",
      "type": "function"
    },
    {
      "inputs": [
        {
          "internalType": "address",
          "name": "from",
          "type": "address"
        },
        {
          "internalType": "address",
          "name": "to",
          "type": "address"
        },
        {
          "internalType": "uint256",
          "name": "value",
          "type": "uint256"
        }
      ],
      "name": "transferFrom",
      "outputs": [
        {
          "internalType": "bool",
          "name": "",
          "type": "bool"
        }
      ],
      "stateMutability": "nonpayable",
      "type": "function"
    },
    {
      "inputs": [
        {
          "internalType": "address",
          "name": "newOwner",
          "type": "address"
        }
      ],
      "name": "transferOwnership",
      "outputs": [],
      "stateMutability": "nonpayable",
      "type": "function"
    }
  ],
  "bytecode": "0x608060405234801561001057600080fd5b50336040518060400160405280600d81526020016c2330b5b2902aa9a21021b7b4b760991b81525060405180604001604052806005815260200164665553444360d81b815250816003908161006591906101a3565b50600461007282826101a3565b5050506001600160a01b0381166100a357604051631e4fbdf760e01b81526000600482015260240160405180910390fd5b6100ac816100b2565b50610261565b600580546001600160a01b038381166001600160a01b0319831681179093556040519116919082907f8be0079c531659141344cd1fd0a4f28419497f9722a3daafe3b4186f6b6457e090600090a35050565b634e487b7160e01b600052604160045260246000fd5b600181811c9082168061012e57607f821691505b60208210810361014e57634e487b7160e01b600052602260045260246000fd5b50919050565b601f82111561019e57806000526020600020601f840160051c8101602085101561017b5750805b601f840160051c820191505b8181101561019b5760008155600101610187565b50505b505050565b81516001600160401b038111156101bc576101bc610104565b6101d0816101ca845461011a565b84610154565b6020601f82116001811461020457600083156101ec5750848201515b600019600385901b1c1916600184901b17845561019b565b600084815260208120601f198516915b828110156102345787850151825560209485019460019092019101610214565b50848210156102525786840151600019600387901b60f8161c191681555b50505050600190811b01905550565b6109c1806102706000396000f3fe608060405234801561001057600080fd5b50600436106100f55760003560e01c806340c10f191161009757806395d89b411161006657806395d89b4114610206578063a9059cbb1461020e578063dd62ed3e14610221578063f2fde38b1461025a57600080fd5b806340c10f19146101a757806370a08231146101ba578063715018a6146101e35780638da5cb5b146101eb57600080fd5b80631e7269c5116100d35780631e7269c51461014d57806323b872dd146101705780632878e27a14610183578063313ce5671461019857600080fd5b806306fdde03146100fa578063095ea7b31461011857806318160ddd1461013b575b600080fd5b61010261026d565b60405161010f919061080a565b60405180910390f35b61012b610126366004610874565b6102ff565b604051901515815260200161010f565b6002545b60405190815260200161010f565b61012b61015b36600461089e565b60066020526000908152604090205460ff1681565b61012b61017e3660046108c0565b610319565b61019661019136600461089e565b61033d565b005b6040516012815260200161010f565b6101966101b5366004610874565b6103e4565b61013f6101c836600461089e565b6001600160a01b031660009081526020819052604090205490565b6101966103fa565b6005546040516001600160a01b03909116815260200161010f565b61010261040e565b61012b61021c366004610874565b61041d565b61013f61022f3660046108fd565b6001600160a01b03918216600090815260016020908152604080832093909416825291909152205490565b61019661026836600461089e565b61042b565b60606003805461027c90610930565b80601f01602080910402602001604051908101604052809291908181526020018280546102a890610930565b80156102f55780601f106102ca576101008083540402835291602001916102f5565b820191906000526020600020905b8154815290600101906020018083116102d857829003601f168201915b5050505050905090565b60003361030d818585610466565b60019150505b92915050565b600033610327858285610478565b6103328585856104f7565b506001949350505050565b6001600160a01b03811660009081526006602052604090205460ff16156103ab5760405162461bcd60e51b815260206004820152601860248201527f46616b65555344433a20616c7265616479206d696e746564000000000000000060448201526064015b60405180910390fd5b6001600160a01b0381166000908152600660205260409020805460ff191660011790556103e18168056bc75e2d63100000610556565b50565b6103ec61058c565b6103f68282610556565b5050565b61040261058c565b61040c60006105b9565b565b60606004805461027c90610930565b60003361030d8185856104f7565b61043361058c565b6001600160a01b03811661045d57604051631e4fbdf760e01b8152600060048201526024016103a2565b6103e1816105b9565b610473838383600161060b565b505050565b6001600160a01b038381166000908152600160209081526040808320938616835292905220546000198110156104f157818110156104e257604051637dc7a0d960e11b81526001600160a01b038416600482015260248101829052604481018390526064016103a2565b6104f18484848403600061060b565b50505050565b6001600160a01b03831661052157604051634b637e8f60e11b8152600060048201526024016103a2565b6001600160a01b03821661054b5760405163ec442f0560e01b8152600060048201526024016103a2565b6104738383836106e0565b6001600160a01b0382166105805760405163ec442f0560e01b8152600060048201526024016103a2565b6103f6600083836106e0565b6005546001600160a01b0316331461040c5760405163118cdaa760e01b81523360048201526024016103a2565b600580546001600160a01b038381166001600160a01b0319831681179093556040519116919082907f8be0079c531659141344cd1fd0a4f28419497f9722a3daafe3b4186f6b6457e090600090a35050565b6001600160a01b0384166106355760405163e602df0560e01b8152600060048201526024016103a2565b6001600160a01b03831661065f57604051634a1406b160e11b8152600060048201526024016103a2565b6001600160a01b03808516600090815260016020908152604080832093871683529290522082905580156104f157826001600160a01b0316846001600160a01b03167f8c5be1e5ebec7d5bd14f71427d1e84f3dd0314c0f7b2291e5b200ac8c7c3b925846040516106d291815260200190565b60405180910390a350505050565b6001600160a01b03831661070b578060026000828254610700919061096a565b9091555061077d9050565b6001600160a01b0383166000908152602081905260409020548181101561075e5760405163391434e360e21b81526001600160a01b038516600482015260248101829052604481018390526064016103a2565b6001600160a01b03841660009081526020819052604090209082900390555b6001600160a01b038216610799576002805482900390556107b8565b6001600160a01b03821660009081526020819052604090208054820190555b816001600160a01b0316836001600160a01b03167fddf252ad1be2c89b69c2b068fc378daa952ba7f163c4a11628f55a4df523b3ef836040516107fd91815260200190565b60405180910390a3505050565b602081526000825180602084015260005b81811015610838576020818601810151604086840101520161081b565b506000604082850101526040601f19601f83011684010191505092915050565b80356001600160a01b038116811461086f57600080fd5b919050565b6000806040838503121561088757600080fd5b61089083610858565b946020939093013593505050565b6000602082840312156108b057600080fd5b6108b982610858565b9392505050565b6000806000606084860312156108d557600080fd5b6108de84610858565b92506108ec60208501610858565b929592945050506040919091013590565b6000806040838503121561091057600080fd5b61091983610858565b915061092760208401610858565b90509250929050565b600181811c9082168061094457607f821691505b60208210810361096457634e487b7160e01b600052602260045260246000fd5b50919050565b8082018082111561031357634e487b7160e01b600052601160045260246000fdfea2646970667358221220cde8f32189f7c64960c92ad95d6b8cd784f9e01dbea902137588dda0b597e7d064736f6c634300081c0033",
  "linkReferences": {},
  "deployedLinkReferences": {}
}