{
  "_format": "hh-sol-artifact-1",
  "contractName": "MidPayCore",
  "sourceName": "contracts/MidPayCore.sol",
  "abi": [
    {
      "inputs": [
        {
          "internalType": "address",
          "name": "_usdc",
          "type": "address"
        },
        {
          "internalType": "address",
          "name": "_layerZeroEndpoint",
          "type": "address"
        }
      ],
      "stateMutability": "nonpayable",
      "type": "constructor"
    },
    {
      "inputs": [
        {
          "internalType": "address",
          "name": "owner",
          "type": "address"
        }
      ],
      "name": "OwnableInvalidOwner",
      "type": "error"
    },
    {
      "inputs": [
        {
          "internalType": "address",
          "name": "account",
          "type": "address"
        }
      ],
      "name": "OwnableUnauthorizedAccount",
      "type": "error"
    },
    {
      "anonymous": false,
      "inputs": [
        {
          "indexed": false,
          "internalType": "address",
          "name": "user",
          "type": "address"
        },
        {
          "indexed": false,
          "internalType": "uint256",
          "name": "amount",
          "type": "uint256"
        }
      ],
      "name": "Deposited",
      "type": "event"
    },
    {
      "anonymous": false,
      "inputs": [],
      "name": "HashAlreadyProcessed",
      "type": "event"
    },
    {
      "anonymous": false,
      "inputs": [],
      "name": "InvalidEndpoint",
      "type": "event"
    },
    {
      "anonymous": false,
      "inputs": [],
      "name": "LookupNotTrusted",
      "type": "event"
    },
    {
      "anonymous": false,
      "inputs": [
        {
          "indexed": false,
          "internalType": "uint16",
          "name": "srcChainId",
          "type": "uint16"
        },
        {
          "indexed": false,
          "internalType": "bytes",
          "name": "srcAddress",
          "type": "bytes"
        },
        {
          "indexed": false,
          "internalType": "uint64",
          "name": "nonce",
          "type": "uint64"
        },
        {
          "indexed": false,
          "internalType": "bytes",
          "name": "payload",
          "type": "bytes"
        }
      ],
      "name": "LzCall",
      "type": "event"
    },
    {
      "anonymous": false,
      "inputs": [],
      "name": "NotEnoughBalance",
      "type": "event"
    },
    {
      "anonymous": false,
      "inputs": [
        {
          "indexed": true,
          "internalType": "address",
          "name": "previousOwner",
          "type": "address"
        },
        {
          "indexed": true,
          "internalType": "address",
          "name": "newOwner",
          "type": "address"
        }
      ],
      "name": "OwnershipTransferred",
      "type": "event"
    },
    {
      "anonymous": false,
      "inputs": [
        {
          "indexed": false,
          "internalType": "address",
          "name": "user",
          "type": "address"
        },
        {
          "indexed": false,
          "internalType": "uint256",
          "name": "amount",
          "type": "uint256"
        }
      ],
      "name": "Withdrawn",
      "type": "event"
    },
    {
      "inputs": [
        {
          "internalType": "address",
          "name": "",
          "type": "address"
        }
      ],
      "name": "balances",
      "outputs": [
        {
          "internalType": "uint256",
          "name": "",
          "type": "uint256"
        }
      ],
      "stateMutability": "view",
      "type": "function"
    },
    {
      "inputs": [
        {
          "internalType": "uint256",
          "name": "amount",
          "type": "uint256"
        }
      ],
      "name": "deposit",
      "outputs": [],
      "stateMutability": "nonpayable",
      "type": "function"
    },
    {
      "inputs": [],
      "name": "externalRouter",
      "outputs": [
        {
          "internalType": "contract IExternalRouter",
          "name": "",
          "type": "address"
        }
      ],
      "stateMutability": "view",
      "type": "function"
    },
    {
      "inputs": [],
      "name": "layerZeroEndpoint",
      "outputs": [
        {
          "internalType": "contract ILayerZeroEndpoint",
          "name": "",
          "type": "address"
        }
      ],
      "stateMutability": "view",
      "type": "function"
    },
    {
      "inputs": [
        {
          "internalType": "uint16",
          "name": "_srcChainId",
          "type": "uint16"
        },
        {
          "internalType": "bytes",
          "name": "_srcAddress",
          "type": "bytes"
        },
        {
          "internalType": "uint64",
          "name": "_nonce",
          "type": "uint64"
        },
        {
          "internalType": "bytes",
          "name": "_payload",
          "type": "bytes"
        }
      ],
      "name": "lzReceive",
      "outputs": [],
      "stateMutability": "nonpayable",
      "type": "function"
    },
    {
      "inputs": [],
      "name": "owner",
      "outputs": [
        {
          "internalType": "address",
          "name": "",
          "type": "address"
        }
      ],
      "stateMutability": "view",
      "type": "function"
    },
    {
      "inputs": [
        {
          "internalType": "bytes32",
          "name": "",
          "type": "bytes32"
        }
      ],
      "name": "processed",
      "outputs": [
        {
          "internalType": "bool",
          "name": "",
          "type": "bool"
        }
      ],
      "stateMutability": "view",
      "type": "function"
    },
    {
      "inputs": [],
      "name": "renounceOwnership",
      "outputs": [],
      "stateMutability": "nonpayable",
      "type": "function"
    },
    {
      "inputs": [
        {
          "internalType": "address",
          "name": "_externalRouter",
          "type": "address"
        }
      ],
      "name": "setExternalRouter",
      "outputs": [],
      "stateMutability": "nonpayable",
      "type": "function"
    },
    {
      "inputs": [
        {
          "internalType": "address",
          "name": "_layerZeroEndpoint",
          "type": "address"
        }
      ],
      "name": "setLayerZeroEndpoint",
      "outputs": [],
      "stateMutability": "nonpayable",
      "type": "function"
    },
    {
      "inputs": [
        {
          "internalType": "uint16",
          "name": "_srcChainId",
          "type": "uint16"
        },
        {
          "internalType": "bytes",
          "name": "_srcAddress",
          "type": "bytes"
        }
      ],
      "name": "setTrustedRemoteLookup",
      "outputs": [],
      "stateMutability": "nonpayable",
      "type": "function"
    },
    {
      "inputs": [
        {
          "internalType": "address",
          "name": "_usdc",
          "type": "address"
        }
      ],
      "name": "setUsdc",
      "outputs": [],
      "stateMutability": "nonpayable",
      "type": "function"
    },
    {
      "inputs": [
        {
          "internalType": "address",
          "name": "newOwner",
          "type": "address"
        }
      ],
      "name": "transferOwnership",
      "outputs": [],
      "stateMutability": "nonpayable",
      "type": "function"
    },
    {
      "inputs": [
        {
          "internalType": "uint16",
          "name": "",
          "type": "uint16"
        }
      ],
      "name": "trustedRemoteLookup",
      "outputs": [
        {
          "internalType": "bytes",
          "name": "",
          "type": "bytes"
        }
      ],
      "stateMutability": "view",
      "type": "function"
    },
    {
      "inputs": [],
      "name": "usdc",
      "outputs": [
        {
          "internalType": "contract IERC20",
          "name": "",
          "type": "address"
        }
      ],
      "stateMutability": "view",
      "type": "function"
    },
    {
      "inputs": [
        {
          "internalType": "uint256",
          "name": "amount",
          "type": "uint256"
        }
      ],
      "name": "withdraw",
      "outputs": [],
      "stateMutability": "nonpayable",
      "type": "function"
    },
    {
      "inputs": [],
      "name": "withdrawEth",
      "outputs": [],
      "stateMutability": "nonpayable",
      "type": "function"
    },
    {
      "stateMutability": "payable",
      "type": "receive"
    }
  ],
  "bytecode": "0x608060405234801561001057600080fd5b5060405161148238038061148283398101604081905261002f916100fc565b338061005557604051631e4fbdf760e01b81526000600482015260240160405180910390fd5b61005e81610090565b50600680546001600160a01b039384166001600160a01b0319918216179091556005805492909316911617905561012f565b600080546001600160a01b038381166001600160a01b0319831681178455604051919092169283917f8be0079c531659141344cd1fd0a4f28419497f9722a3daafe3b4186f6b6457e09190a35050565b80516001600160a01b03811681146100f757600080fd5b919050565b6000806040838503121561010f57600080fd5b610118836100e0565b9150610126602084016100e0565b90509250929050565b6113448061013e6000396000f3fe6080604052600436106101015760003560e01c80637533d78811610095578063a0ef91df11610064578063a0ef91df146102c7578063b6b55f25146102dc578063c1f0808a146102fc578063cb1468791461033c578063f2fde38b1461035c57600080fd5b80637533d7881461023c5780638da5cb5b1461026957806395b9783c146102875780639a39db9b146102a757600080fd5b80633e413bee116100d15780633e413bee146101c75780635f12a5ac146101e757806362c4379f14610207578063715018a61461022757600080fd5b80621d35671461010d57806307968db11461012f57806327e235e31461016c5780632e1a7d4d146101a757600080fd5b3661010857005b600080fd5b34801561011957600080fd5b5061012d610128366004610d6b565b61037c565b005b34801561013b57600080fd5b5060055461014f906001600160a01b031681565b6040516001600160a01b0390911681526020015b60405180910390f35b34801561017857600080fd5b50610199610187366004610e19565b60016020526000908152604090205481565b604051908152602001610163565b3480156101b357600080fd5b5061012d6101c2366004610e3d565b6108b9565b3480156101d357600080fd5b5060065461014f906001600160a01b031681565b3480156101f357600080fd5b5061012d610202366004610e56565b610956565b34801561021357600080fd5b5060045461014f906001600160a01b031681565b34801561023357600080fd5b5061012d610980565b34801561024857600080fd5b5061025c610257366004610ea4565b610994565b6040516101639190610f0f565b34801561027557600080fd5b506000546001600160a01b031661014f565b34801561029357600080fd5b5061012d6102a2366004610e19565b610a2e565b3480156102b357600080fd5b5061012d6102c2366004610e19565b610a58565b3480156102d357600080fd5b5061012d610a82565b3480156102e857600080fd5b5061012d6102f7366004610e3d565b610b2a565b34801561030857600080fd5b5061032c610317366004610e3d565b60036020526000908152604090205460ff1681565b6040519015158152602001610163565b34801561034857600080fd5b5061012d610357366004610e19565b610bcd565b34801561036857600080fd5b5061012d610377366004610e19565b610bf7565b7ffaa3d432595bede51a82ef50d93931bf5fce9c091436ab2b2cc02b8ec0bc5974848484846040516103b19493929190610f22565b60405180910390a16000848484846040516020016103d29493929190610f6c565b60408051601f1981840301815291815281516020928301206000818152600390935291205490915060ff1615610431576040517ff95cf59047dd9210210626d00aa781827fc700d32d62765125b0f75c8afdc2fa90600090a1506108b3565b6000818152600360205260409020805460ff19166001179055600554336001600160a01b039091161480159061047257506004546001600160a01b03163314155b156104a6576040517ff1cbb567704015383ee98669ab32a18748b06087e30f09387a43e6494de0fe6190600090a1506108b3565b61ffff85166000908152600260205260409081902090516104c79190611001565b604051809103902084805190602001201461050b576040517f66e2f52e0310e99e8d2bbb70e94a10288010f5187b2fb374b752c44397ed79f690600090a1506108b3565b6000806000848060200190518101906105249190611086565b92509250925080156105a8576001600160a01b038316600090815260016020526040812080548492906105589084906110db565b9091555050604080516001600160a01b0385168152602081018490527f2da466a7b24304f47e87fa2e1e5a81b9831ce54fec19055ce277ca2f39ba42c4910160405180910390a1505050506108b3565b6001600160a01b0383166000908152600160205260409020548211156105fa576040517fad3a8b9eaddc3d6d5c780ccaaf272bfb52ccfbe8d3a426f9902dadb4685d4a9b90600090a1505050506108b3565b6001600160a01b038316600090815260016020526040812080548492906106229084906110f4565b90915550506001600160a01b038316600081815260016020908152604091829020548251938452908301527f7084f5476618d8e60b11ef0d7d3f06914655adb8793e28ff7f018d4c76d505d5910160405180910390a16014870151604080516001600160a01b038681166020830152818301869052825180830384018152606080840185526bffffffffffffffffffffffff1986821b811660808601523090911b1660948401528351808403608801815260a890930190935260045416330361077e57600460009054906101000a90046001600160a01b03166001600160a01b031663c58031008c8385306000604051806020016040528060008152506040518763ffffffff1660e01b815260040161074096959493929190611107565b600060405180830381600087803b15801561075a57600080fd5b505af115801561076e573d6000803e3d6000fd5b50505050505050505050506108b3565b6000600560009054906101000a90046001600160a01b03166001600160a01b03166340a7bb108d868c6000604051806020016040528060008152506040518663ffffffff1660e01b81526004016107d995949392919061116e565b6040805180830381865afa1580156107f5573d6000803e3d6000fd5b505050506040513d601f19601f8201168201806040525081019061081991906111c2565b509050600560009054906101000a90046001600160a01b03166001600160a01b031663c5803100828e8587306000604051806020016040528060008152506040518863ffffffff1660e01b815260040161087896959493929190611107565b6000604051808303818588803b15801561089157600080fd5b505af11580156108a5573d6000803e3d6000fd5b505050505050505050505050505b50505050565b33600090815260016020526040812080548392906108d89084906110f4565b909155505060065460405163a9059cbb60e01b8152336004820152602481018390526001600160a01b039091169063a9059cbb906044016020604051808303816000875af115801561092e573d6000803e3d6000fd5b505050506040513d601f19601f8201168201806040525081019061095291906111e6565b5050565b61095e610c32565b61ffff8216600090815260026020526040902061097b828261124f565b505050565b610988610c32565b6109926000610c5f565b565b600260205260009081526040902080546109ad90610fc7565b80601f01602080910402602001604051908101604052809291908181526020018280546109d990610fc7565b8015610a265780601f106109fb57610100808354040283529160200191610a26565b820191906000526020600020905b815481529060010190602001808311610a0957829003601f168201915b505050505081565b610a36610c32565b600580546001600160a01b0319166001600160a01b0392909216919091179055565b610a60610c32565b600480546001600160a01b0319166001600160a01b0392909216919091179055565b610a8a610c32565b604051600090339047908381818185875af1925050503d8060008114610acc576040519150601f19603f3d011682016040523d82523d6000602084013e610ad1565b606091505b5050905080610b275760405162461bcd60e51b815260206004820152601b60248201527f4d6964506179436f72653a205769746864726177206661696c6564000000000060448201526064015b60405180910390fd5b50565b6006546040516323b872dd60e01b8152336004820152306024820152604481018390526001600160a01b03909116906323b872dd906064016020604051808303816000875af1158015610b81573d6000803e3d6000fd5b505050506040513d601f19601f82011682018060405250810190610ba591906111e6565b503360009081526001602052604081208054839290610bc59084906110db565b909155505050565b610bd5610c32565b600680546001600160a01b0319166001600160a01b0392909216919091179055565b610bff610c32565b6001600160a01b038116610c2957604051631e4fbdf760e01b815260006004820152602401610b1e565b610b2781610c5f565b6000546001600160a01b031633146109925760405163118cdaa760e01b8152336004820152602401610b1e565b600080546001600160a01b038381166001600160a01b0319831681178455604051919092169283917f8be0079c531659141344cd1fd0a4f28419497f9722a3daafe3b4186f6b6457e09190a35050565b803561ffff81168114610cc157600080fd5b919050565b634e487b7160e01b600052604160045260246000fd5b600082601f830112610ced57600080fd5b813567ffffffffffffffff811115610d0757610d07610cc6565b604051601f8201601f19908116603f0116810167ffffffffffffffff81118282101715610d3657610d36610cc6565b604052818152838201602001851015610d4e57600080fd5b816020850160208301376000918101602001919091529392505050565b60008060008060808587031215610d8157600080fd5b610d8a85610caf565b9350602085013567ffffffffffffffff811115610da657600080fd5b610db287828801610cdc565b935050604085013567ffffffffffffffff81168114610dd057600080fd5b9150606085013567ffffffffffffffff811115610dec57600080fd5b610df887828801610cdc565b91505092959194509250565b6001600160a01b0381168114610b2757600080fd5b600060208284031215610e2b57600080fd5b8135610e3681610e04565b9392505050565b600060208284031215610e4f57600080fd5b5035919050565b60008060408385031215610e6957600080fd5b610e7283610caf565b9150602083013567ffffffffffffffff811115610e8e57600080fd5b610e9a85828601610cdc565b9150509250929050565b600060208284031215610eb657600080fd5b610e3682610caf565b60005b83811015610eda578181015183820152602001610ec2565b50506000910152565b60008151808452610efb816020860160208601610ebf565b601f01601f19169290920160200192915050565b602081526000610e366020830184610ee3565b61ffff85168152608060208201526000610f3f6080830186610ee3565b67ffffffffffffffff851660408401528281036060840152610f618185610ee3565b979650505050505050565b61ffff60f01b8560f01b16815260008451610f8e816002850160208901610ebf565b60c085901b6001600160c01b0319166002918401918201528351610fb981600a840160208801610ebf565b01600a019695505050505050565b600181811c90821680610fdb57607f821691505b602082108103610ffb57634e487b7160e01b600052602260045260246000fd5b50919050565b600080835461100f81610fc7565b600182168015611026576001811461103b5761106b565b60ff198316865281151582028601935061106b565b86600052602060002060005b8381101561106357815488820152600190910190602001611047565b505081860193505b509195945050505050565b80518015158114610cc157600080fd5b60008060006060848603121561109b57600080fd5b83516110a681610e04565b602085015190935091506110bc60408501611076565b90509250925092565b634e487b7160e01b600052601160045260246000fd5b808201808211156110ee576110ee6110c5565b92915050565b818103818111156110ee576110ee6110c5565b61ffff8716815260c06020820152600061112460c0830188610ee3565b82810360408401526111368188610ee3565b6001600160a01b0387811660608601528616608085015283810360a085015290506111618185610ee3565b9998505050505050505050565b61ffff861681526001600160a01b038516602082015260a06040820181905260009061119c90830186610ee3565b841515606084015282810360808401526111b68185610ee3565b98975050505050505050565b600080604083850312156111d557600080fd5b505080516020909101519092909150565b6000602082840312156111f857600080fd5b610e3682611076565b601f82111561097b57806000526020600020601f840160051c810160208510156112285750805b601f840160051c820191505b818110156112485760008155600101611234565b5050505050565b815167ffffffffffffffff81111561126957611269610cc6565b61127d816112778454610fc7565b84611201565b6020601f8211600181146112b157600083156112995750848201515b600019600385901b1c1916600184901b178455611248565b600084815260208120601f198516915b828110156112e157878501518255602094850194600190920191016112c1565b50848210156112ff5786840151600019600387901b60f8161c191681555b50505050600190811b0190555056fea2646970667358221220d6ce9265a59dce517c788796abaf2d3c0041f7325a4259b8656f747cbe0e3c7c64736f6c634300081c0033",
  "linkReferences": {},
  "deployedLinkReferences": {}
}