{
  "_format": "hh-sol-artifact-1",
  "contractName": "MidPayClient",
  "sourceName": "contracts/MidPay.sol",
  "abi": [
    {
      "inputs": [
        {
          "internalType": "address",
          "name": "_usdc",
          "type": "address"
        },
        {
          "internalType": "address",
          "name": "_layerZeroEndpoint",
          "type": "address"
        },
        {
          "internalType": "address",
          "name": "_coreAddress",
          "type": "address"
        },
        {
          "internalType": "uint16",
          "name": "_coreChainId",
          "type": "uint16"
        }
      ],
      "stateMutability": "nonpayable",
      "type": "constructor"
    },
    {
      "inputs": [
        {
          "internalType": "address",
          "name": "owner",
          "type": "address"
        }
      ],
      "name": "OwnableInvalidOwner",
      "type": "error"
    },
    {
      "inputs": [
        {
          "internalType": "address",
          "name": "account",
          "type": "address"
        }
      ],
      "name": "OwnableUnauthorizedAccount",
      "type": "error"
    },
    {
      "anonymous": false,
      "inputs": [],
      "name": "HashAlreadyProcessed",
      "type": "event"
    },
    {
      "anonymous": false,
      "inputs": [],
      "name": "InvalidEndpoint",
      "type": "event"
    },
    {
      "anonymous": false,
      "inputs": [],
      "name": "LookupNotTrusted",
      "type": "event"
    },
    {
      "anonymous": false,
      "inputs": [
        {
          "indexed": false,
          "internalType": "uint16",
          "name": "srcChainId",
          "type": "uint16"
        },
        {
          "indexed": false,
          "internalType": "bytes",
          "name": "srcAddress",
          "type": "bytes"
        },
        {
          "indexed": false,
          "internalType": "uint64",
          "name": "nonce",
          "type": "uint64"
        },
        {
          "indexed": false,
          "internalType": "bytes",
          "name": "payload",
          "type": "bytes"
        }
      ],
      "name": "LzCall",
      "type": "event"
    },
    {
      "anonymous": false,
      "inputs": [
        {
          "indexed": true,
          "internalType": "address",
          "name": "previousOwner",
          "type": "address"
        },
        {
          "indexed": true,
          "internalType": "address",
          "name": "newOwner",
          "type": "address"
        }
      ],
      "name": "OwnershipTransferred",
      "type": "event"
    },
    {
      "inputs": [],
      "name": "coreAddress",
      "outputs": [
        {
          "internalType": "address",
          "name": "",
          "type": "address"
        }
      ],
      "stateMutability": "view",
      "type": "function"
    },
    {
      "inputs": [],
      "name": "coreChainId",
      "outputs": [
        {
          "internalType": "uint16",
          "name": "",
          "type": "uint16"
        }
      ],
      "stateMutability": "view",
      "type": "function"
    },
    {
      "inputs": [
        {
          "internalType": "uint256",
          "name": "amount",
          "type": "uint256"
        }
      ],
      "name": "deposit",
      "outputs": [],
      "stateMutability": "nonpayable",
      "type": "function"
    },
    {
      "inputs": [],
      "name": "layerZeroEndpoint",
      "outputs": [
        {
          "internalType": "contract ILayerZeroEndpoint",
          "name": "",
          "type": "address"
        }
      ],
      "stateMutability": "view",
      "type": "function"
    },
    {
      "inputs": [
        {
          "internalType": "uint16",
          "name": "_srcChainId",
          "type": "uint16"
        },
        {
          "internalType": "bytes",
          "name": "_srcAddress",
          "type": "bytes"
        },
        {
          "internalType": "uint64",
          "name": "_nonce",
          "type": "uint64"
        },
        {
          "internalType": "bytes",
          "name": "_payload",
          "type": "bytes"
        }
      ],
      "name": "lzReceive",
      "outputs": [],
      "stateMutability": "nonpayable",
      "type": "function"
    },
    {
      "inputs": [],
      "name": "owner",
      "outputs": [
        {
          "internalType": "address",
          "name": "",
          "type": "address"
        }
      ],
      "stateMutability": "view",
      "type": "function"
    },
    {
      "inputs": [
        {
          "internalType": "bytes32",
          "name": "",
          "type": "bytes32"
        }
      ],
      "name": "processed",
      "outputs": [
        {
          "internalType": "bool",
          "name": "",
          "type": "bool"
        }
      ],
      "stateMutability": "view",
      "type": "function"
    },
    {
      "inputs": [],
      "name": "renounceOwnership",
      "outputs": [],
      "stateMutability": "nonpayable",
      "type": "function"
    },
    {
      "inputs": [
        {
          "internalType": "address",
          "name": "_coreAddress",
          "type": "address"
        }
      ],
      "name": "setCoreAddress",
      "outputs": [],
      "stateMutability": "nonpayable",
      "type": "function"
    },
    {
      "inputs": [
        {
          "internalType": "uint16",
          "name": "_coreChainId",
          "type": "uint16"
        }
      ],
      "name": "setCoreChainId",
      "outputs": [],
      "stateMutability": "nonpayable",
      "type": "function"
    },
    {
      "inputs": [
        {
          "internalType": "address",
          "name": "_layerZeroEndpoint",
          "type": "address"
        }
      ],
      "name": "setLayerZeroEndpoint",
      "outputs": [],
      "stateMutability": "nonpayable",
      "type": "function"
    },
    {
      "inputs": [
        {
          "internalType": "uint16",
          "name": "_srcChainId",
          "type": "uint16"
        },
        {
          "internalType": "bytes",
          "name": "_srcAddress",
          "type": "bytes"
        }
      ],
      "name": "setTrustedRemoteLookup",
      "outputs": [],
      "stateMutability": "nonpayable",
      "type": "function"
    },
    {
      "inputs": [
        {
          "internalType": "address",
          "name": "_usdc",
          "type": "address"
        }
      ],
      "name": "setUsdc",
      "outputs": [],
      "stateMutability": "nonpayable",
      "type": "function"
    },
    {
      "inputs": [
        {
          "internalType": "address",
          "name": "newOwner",
          "type": "address"
        }
      ],
      "name": "transferOwnership",
      "outputs": [],
      "stateMutability": "nonpayable",
      "type": "function"
    },
    {
      "inputs": [
        {
          "internalType": "uint16",
          "name": "",
          "type": "uint16"
        }
      ],
      "name": "trustedRemoteLookup",
      "outputs": [
        {
          "internalType": "bytes",
          "name": "",
          "type": "bytes"
        }
      ],
      "stateMutability": "view",
      "type": "function"
    },
    {
      "inputs": [],
      "name": "usdc",
      "outputs": [
        {
          "internalType": "contract IERC20",
          "name": "",
          "type": "address"
        }
      ],
      "stateMutability": "view",
      "type": "function"
    },
    {
      "inputs": [
        {
          "internalType": "uint256",
          "name": "amount",
          "type": "uint256"
        }
      ],
      "name": "withdraw",
      "outputs": [],
      "stateMutability": "nonpayable",
      "type": "function"
    },
    {
      "inputs": [],
      "name": "withdrawEth",
      "outputs": [],
      "stateMutability": "nonpayable",
      "type": "function"
    },
    {
      "stateMutability": "payable",
      "type": "receive"
    }
  ],
  "bytecode": "0x608060405234801561001057600080fd5b506040516112b13803806112b183398101604081905261002f91610125565b338061005557604051631e4fbdf760e01b81526000600482015260240160405180910390fd5b61005e816100b9565b50600480546001600160a01b039586166001600160a01b0319918216179091556003805494861694909116939093179092556005805461ffff909316600160a01b026001600160b01b03199093169190931617179055610182565b600080546001600160a01b038381166001600160a01b0319831681178455604051919092169283917f8be0079c531659141344cd1fd0a4f28419497f9722a3daafe3b4186f6b6457e09190a35050565b80516001600160a01b038116811461012057600080fd5b919050565b6000806000806080858703121561013b57600080fd5b61014485610109565b935061015260208601610109565b925061016060408601610109565b9150606085015161ffff8116811461017757600080fd5b939692955090935050565b611120806101916000396000f3fe60806040526004361061010c5760003560e01c80638da5cb5b11610095578063ae19e25d11610064578063ae19e25d146102e1578063b6b55f2514610301578063c1f0808a14610321578063cb14687914610361578063f2fde38b1461038157600080fd5b80638da5cb5b1461026e57806391aad2391461028c57806395b9783c146102ac578063a0ef91df146102cc57600080fd5b80633e413bee116100dc5780633e413bee146101b75780635536f461146101d75780635f12a5ac1461020c578063715018a61461022c5780637533d7881461024157600080fd5b80621d35671461011857806307968db11461013a5780631c0ad646146101775780632e1a7d4d1461019757600080fd5b3661011357005b600080fd5b34801561012457600080fd5b50610138610133366004610ba3565b6103a1565b005b34801561014657600080fd5b5060035461015a906001600160a01b031681565b6040516001600160a01b0390911681526020015b60405180910390f35b34801561018357600080fd5b5060055461015a906001600160a01b031681565b3480156101a357600080fd5b506101386101b2366004610c3c565b6105b7565b3480156101c357600080fd5b5060045461015a906001600160a01b031681565b3480156101e357600080fd5b506005546101f990600160a01b900461ffff1681565b60405161ffff909116815260200161016e565b34801561021857600080fd5b50610138610227366004610c55565b6105c5565b34801561023857600080fd5b506101386105ef565b34801561024d57600080fd5b5061026161025c366004610ca3565b610603565b60405161016e9190610d15565b34801561027a57600080fd5b506000546001600160a01b031661015a565b34801561029857600080fd5b506101386102a7366004610d3d565b61069d565b3480156102b857600080fd5b506101386102c7366004610d3d565b6106c7565b3480156102d857600080fd5b506101386106f1565b3480156102ed57600080fd5b506101386102fc366004610ca3565b610796565b34801561030d57600080fd5b5061013861031c366004610c3c565b6107c0565b34801561032d57600080fd5b5061035161033c366004610c3c565b60026020526000908152604090205460ff1681565b604051901515815260200161016e565b34801561036d57600080fd5b5061013861037c366004610d3d565b610848565b34801561038d57600080fd5b5061013861039c366004610d3d565b610872565b7ffaa3d432595bede51a82ef50d93931bf5fce9c091436ab2b2cc02b8ec0bc5974848484846040516103d69493929190610d5a565b60405180910390a16000848484846040516020016103f79493929190610da4565b60408051601f1981840301815291815281516020928301206000818152600290935291205490915060ff1615610456576040517ff95cf59047dd9210210626d00aa781827fc700d32d62765125b0f75c8afdc2fa90600090a1506105b1565b6000818152600260205260409020805460ff19166001179055600354336001600160a01b03909116146104b2576040517ff1cbb567704015383ee98669ab32a18748b06087e30f09387a43e6494de0fe6190600090a1506105b1565b61ffff85166000908152600160205260409081902090516104d39190610e39565b6040518091039020848051906020012014610517576040517f66e2f52e0310e99e8d2bbb70e94a10288010f5187b2fb374b752c44397ed79f690600090a1506105b1565b6000808380602001905181019061052e9190610eae565b6004805460405163a9059cbb60e01b81526001600160a01b038086169382019390935260248101849052939550919350169063a9059cbb906044016020604051808303816000875af1158015610588573d6000803e3d6000fd5b505050506040513d601f19601f820116820180604052508101906105ac9190610edc565b505050505b50505050565b6105c28160006108ad565b50565b6105cd610a6a565b61ffff821660009081526001602052604090206105ea8282610f4c565b505050565b6105f7610a6a565b6106016000610a97565b565b6001602052600090815260409020805461061c90610dff565b80601f016020809104026020016040519081016040528092919081815260200182805461064890610dff565b80156106955780601f1061066a57610100808354040283529160200191610695565b820191906000526020600020905b81548152906001019060200180831161067857829003601f168201915b505050505081565b6106a5610a6a565b600580546001600160a01b0319166001600160a01b0392909216919091179055565b6106cf610a6a565b600380546001600160a01b0319166001600160a01b0392909216919091179055565b6106f9610a6a565b604051600090339047908381818185875af1925050503d806000811461073b576040519150601f19603f3d011682016040523d82523d6000602084013e610740565b606091505b50509050806105c25760405162461bcd60e51b815260206004820152601760248201527f4d69645061793a205769746864726177206661696c656400000000000000000060448201526064015b60405180910390fd5b61079e610a6a565b6005805461ffff909216600160a01b0261ffff60a01b19909216919091179055565b600480546040516323b872dd60e01b81523392810192909252306024830152604482018390526001600160a01b0316906323b872dd906064016020604051808303816000875af1158015610818573d6000803e3d6000fd5b505050506040513d601f19601f8201168201806040525081019061083c9190610edc565b506105c28160016108ad565b610850610a6a565b600480546001600160a01b0319166001600160a01b0392909216919091179055565b61087a610a6a565b6001600160a01b0381166108a457604051631e4fbdf760e01b81526000600482015260240161078d565b6105c281610a97565b60408051336020820152808201849052821515606080830191909152825180830382018152608083018452600554821b6bffffffffffffffffffffffff1990811660a08501523090921b90911660b4830152825160a881840301815260c890920190925260008361094557604051600160f01b60208201526207a1206022820152604201604051602081830303815290604052610956565b604051806020016040528060008152505b60035460055460405163040a7bb160e41b81529293506000926001600160a01b03928316926340a7bb10926109a392600160a01b820461ffff16929091169089908790899060040161100b565b6040805180830381865afa1580156109bf573d6000803e3d6000fd5b505050506040513d601f19601f820116820180604052508101906109e3919061105f565b5060035460055460405162c5803160e81b81529293506001600160a01b039091169163c5803100918491610a3091600160a01b900461ffff169088908a9030906000908b90600401611083565b6000604051808303818588803b158015610a4957600080fd5b505af1158015610a5d573d6000803e3d6000fd5b5050505050505050505050565b6000546001600160a01b031633146106015760405163118cdaa760e01b815233600482015260240161078d565b600080546001600160a01b038381166001600160a01b0319831681178455604051919092169283917f8be0079c531659141344cd1fd0a4f28419497f9722a3daafe3b4186f6b6457e09190a35050565b803561ffff81168114610af957600080fd5b919050565b634e487b7160e01b600052604160045260246000fd5b600082601f830112610b2557600080fd5b813567ffffffffffffffff811115610b3f57610b3f610afe565b604051601f8201601f19908116603f0116810167ffffffffffffffff81118282101715610b6e57610b6e610afe565b604052818152838201602001851015610b8657600080fd5b816020850160208301376000918101602001919091529392505050565b60008060008060808587031215610bb957600080fd5b610bc285610ae7565b9350602085013567ffffffffffffffff811115610bde57600080fd5b610bea87828801610b14565b935050604085013567ffffffffffffffff81168114610c0857600080fd5b9150606085013567ffffffffffffffff811115610c2457600080fd5b610c3087828801610b14565b91505092959194509250565b600060208284031215610c4e57600080fd5b5035919050565b60008060408385031215610c6857600080fd5b610c7183610ae7565b9150602083013567ffffffffffffffff811115610c8d57600080fd5b610c9985828601610b14565b9150509250929050565b600060208284031215610cb557600080fd5b610cbe82610ae7565b9392505050565b60005b83811015610ce0578181015183820152602001610cc8565b50506000910152565b60008151808452610d01816020860160208601610cc5565b601f01601f19169290920160200192915050565b602081526000610cbe6020830184610ce9565b6001600160a01b03811681146105c257600080fd5b600060208284031215610d4f57600080fd5b8135610cbe81610d28565b61ffff85168152608060208201526000610d776080830186610ce9565b67ffffffffffffffff851660408401528281036060840152610d998185610ce9565b979650505050505050565b61ffff60f01b8560f01b16815260008451610dc6816002850160208901610cc5565b60c085901b6001600160c01b0319166002918401918201528351610df181600a840160208801610cc5565b01600a019695505050505050565b600181811c90821680610e1357607f821691505b602082108103610e3357634e487b7160e01b600052602260045260246000fd5b50919050565b6000808354610e4781610dff565b600182168015610e5e5760018114610e7357610ea3565b60ff1983168652811515820286019350610ea3565b86600052602060002060005b83811015610e9b57815488820152600190910190602001610e7f565b505081860193505b509195945050505050565b60008060408385031215610ec157600080fd5b8251610ecc81610d28565b6020939093015192949293505050565b600060208284031215610eee57600080fd5b81518015158114610cbe57600080fd5b601f8211156105ea57806000526020600020601f840160051c81016020851015610f255750805b601f840160051c820191505b81811015610f455760008155600101610f31565b5050505050565b815167ffffffffffffffff811115610f6657610f66610afe565b610f7a81610f748454610dff565b84610efe565b6020601f821160018114610fae5760008315610f965750848201515b600019600385901b1c1916600184901b178455610f45565b600084815260208120601f198516915b82811015610fde5787850151825560209485019460019092019101610fbe565b5084821015610ffc5786840151600019600387901b60f8161c191681555b50505050600190811b01905550565b61ffff861681526001600160a01b038516602082015260a06040820181905260009061103990830186610ce9565b841515606084015282810360808401526110538185610ce9565b98975050505050505050565b6000806040838503121561107257600080fd5b505080516020909101519092909150565b61ffff8716815260c0602082015260006110a060c0830188610ce9565b82810360408401526110b28188610ce9565b6001600160a01b0387811660608601528616608085015283810360a085015290506110dd8185610ce9565b999850505050505050505056fea2646970667358221220a8324e0c7bd4b541d51d05f98d212d7164565f30b797ff1f2452a3c969045c0d64736f6c634300081c0033",
  "linkReferences": {},
  "deployedLinkReferences": {}
}