{
  "_format": "hh-sol-artifact-1",
  "contractName": "ExternalRouter",
  "sourceName": "contracts/router/ExternalRouter.sol",
  "abi": [
    {
      "inputs": [
        {
          "internalType": "address",
          "name": "_midPay",
          "type": "address"
        },
        {
          "internalType": "uint16",
          "name": "_currentChainId",
          "type": "uint16"
        }
      ],
      "stateMutability": "nonpayable",
      "type": "constructor"
    },
    {
      "inputs": [
        {
          "internalType": "address",
          "name": "owner",
          "type": "address"
        }
      ],
      "name": "OwnableInvalidOwner",
      "type": "error"
    },
    {
      "inputs": [
        {
          "internalType": "address",
          "name": "account",
          "type": "address"
        }
      ],
      "name": "OwnableUnauthorizedAccount",
      "type": "error"
    },
    {
      "anonymous": false,
      "inputs": [
        {
          "components": [
            {
              "internalType": "uint16",
              "name": "chainId",
              "type": "uint16"
            },
            {
              "internalType": "bytes",
              "name": "addressCombination",
              "type": "bytes"
            },
            {
              "internalType": "bytes",
              "name": "payload",
              "type": "bytes"
            }
          ],
          "indexed": false,
          "internalType": "struct ExternalRouter.Message",
          "name": "message",
          "type": "tuple"
        }
      ],
      "name": "MessageSent",
      "type": "event"
    },
    {
      "anonymous": false,
      "inputs": [
        {
          "indexed": true,
          "internalType": "address",
          "name": "previousOwner",
          "type": "address"
        },
        {
          "indexed": true,
          "internalType": "address",
          "name": "newOwner",
          "type": "address"
        }
      ],
      "name": "OwnershipTransferred",
      "type": "event"
    },
    {
      "inputs": [],
      "name": "currentChainId",
      "outputs": [
        {
          "internalType": "uint16",
          "name": "",
          "type": "uint16"
        }
      ],
      "stateMutability": "view",
      "type": "function"
    },
    {
      "inputs": [
        {
          "internalType": "uint16",
          "name": "",
          "type": "uint16"
        },
        {
          "internalType": "address",
          "name": "",
          "type": "address"
        },
        {
          "internalType": "bytes",
          "name": "",
          "type": "bytes"
        },
        {
          "internalType": "bool",
          "name": "",
          "type": "bool"
        },
        {
          "internalType": "bytes",
          "name": "",
          "type": "bytes"
        }
      ],
      "name": "estimateFees",
      "outputs": [
        {
          "internalType": "uint256",
          "name": "",
          "type": "uint256"
        },
        {
          "internalType": "uint256",
          "name": "",
          "type": "uint256"
        }
      ],
      "stateMutability": "pure",
      "type": "function"
    },
    {
      "inputs": [
        {
          "internalType": "bytes",
          "name": "",
          "type": "bytes"
        }
      ],
      "name": "lastNonces",
      "outputs": [
        {
          "internalType": "uint64",
          "name": "",
          "type": "uint64"
        }
      ],
      "stateMutability": "view",
      "type": "function"
    },
    {
      "inputs": [
        {
          "internalType": "uint256",
          "name": "",
          "type": "uint256"
        }
      ],
      "name": "messageQueue",
      "outputs": [
        {
          "internalType": "uint16",
          "name": "chainId",
          "type": "uint16"
        },
        {
          "internalType": "bytes",
          "name": "addressCombination",
          "type": "bytes"
        },
        {
          "internalType": "bytes",
          "name": "payload",
          "type": "bytes"
        }
      ],
      "stateMutability": "view",
      "type": "function"
    },
    {
      "inputs": [],
      "name": "midPay",
      "outputs": [
        {
          "internalType": "contract ILayerZeroReceiver",
          "name": "",
          "type": "address"
        }
      ],
      "stateMutability": "view",
      "type": "function"
    },
    {
      "inputs": [],
      "name": "owner",
      "outputs": [
        {
          "internalType": "address",
          "name": "",
          "type": "address"
        }
      ],
      "stateMutability": "view",
      "type": "function"
    },
    {
      "inputs": [],
      "name": "pop",
      "outputs": [],
      "stateMutability": "nonpayable",
      "type": "function"
    },
    {
      "inputs": [],
      "name": "queueLength",
      "outputs": [
        {
          "internalType": "uint256",
          "name": "",
          "type": "uint256"
        }
      ],
      "stateMutability": "view",
      "type": "function"
    },
    {
      "inputs": [],
      "name": "renounceOwnership",
      "outputs": [],
      "stateMutability": "nonpayable",
      "type": "function"
    },
    {
      "inputs": [
        {
          "components": [
            {
              "internalType": "uint16",
              "name": "chainId",
              "type": "uint16"
            },
            {
              "internalType": "bytes",
              "name": "addressCombination",
              "type": "bytes"
            },
            {
              "internalType": "bytes",
              "name": "payload",
              "type": "bytes"
            }
          ],
          "internalType": "struct ExternalRouter.Message",
          "name": "message",
          "type": "tuple"
        }
      ],
      "name": "route",
      "outputs": [],
      "stateMutability": "nonpayable",
      "type": "function"
    },
    {
      "inputs": [
        {
          "internalType": "uint16",
          "name": "_dstChainId",
          "type": "uint16"
        },
        {
          "internalType": "bytes",
          "name": "_destination",
          "type": "bytes"
        },
        {
          "internalType": "bytes",
          "name": "_payload",
          "type": "bytes"
        },
        {
          "internalType": "address payable",
          "name": "",
          "type": "address"
        },
        {
          "internalType": "address",
          "name": "",
          "type": "address"
        },
        {
          "internalType": "bytes",
          "name": "",
          "type": "bytes"
        }
      ],
      "name": "send",
      "outputs": [],
      "stateMutability": "nonpayable",
      "type": "function"
    },
    {
      "inputs": [
        {
          "internalType": "address",
          "name": "_midPay",
          "type": "address"
        }
      ],
      "name": "setMidPay",
      "outputs": [],
      "stateMutability": "nonpayable",
      "type": "function"
    },
    {
      "inputs": [
        {
          "internalType": "address",
          "name": "newOwner",
          "type": "address"
        }
      ],
      "name": "transferOwnership",
      "outputs": [],
      "stateMutability": "nonpayable",
      "type": "function"
    },
    {
      "inputs": [],
      "name": "withdraw",
      "outputs": [],
      "stateMutability": "nonpayable",
      "type": "function"
    },
    {
      "stateMutability": "payable",
      "type": "receive"
    }
  ],
  "bytecode": "0x608060405234801561001057600080fd5b506040516111ec3803806111ec83398101604081905261002f916100ea565b338061005557604051631e4fbdf760e01b81526000600482015260240160405180910390fd5b61005e8161009a565b50600480546001600160a01b0319166001600160a01b0393909316929092179091556002805461ffff191661ffff909216919091179055610137565b600080546001600160a01b038381166001600160a01b0319831681178455604051919092169283917f8be0079c531659141344cd1fd0a4f28419497f9722a3daafe3b4186f6b6457e09190a35050565b600080604083850312156100fd57600080fd5b82516001600160a01b038116811461011457600080fd5b602084015190925061ffff8116811461012c57600080fd5b809150509250929050565b6110a6806101466000396000f3fe6080604052600436106100e15760003560e01c80638da5cb5b1161007f578063c580310011610059578063c580310014610267578063e6b96cab14610287578063e72304ab146102e0578063f2fde38b1461030057600080fd5b80638da5cb5b14610216578063a4ece52c14610234578063ab91c7b01461024957600080fd5b806340a7bb10116100bb57806340a7bb101461015c5780636cbadbfa1461019b578063715018a6146101c9578063870de055146101de57600080fd5b8063073bbc3c146100ed57806329aa604b1461010f5780633ccfd60b1461014757600080fd5b366100e857005b600080fd5b3480156100f957600080fd5b5061010d6101083660046109fc565b610320565b005b34801561011b57600080fd5b5061012f61012a366004610a20565b61034a565b60405161013e93929190610a7f565b60405180910390f35b34801561015357600080fd5b5061010d610495565b34801561016857600080fd5b50610186610177366004610b17565b60008097509795505050505050565b6040805192835260208301919091520161013e565b3480156101a757600080fd5b506002546101b69061ffff1681565b60405161ffff909116815260200161013e565b3480156101d557600080fd5b5061010d61053d565b3480156101ea57600080fd5b506004546101fe906001600160a01b031681565b6040516001600160a01b03909116815260200161013e565b34801561022257600080fd5b506000546001600160a01b03166101fe565b34801561024057600080fd5b5061010d610551565b34801561025557600080fd5b5060015460405190815260200161013e565b34801561027357600080fd5b5061010d610282366004610bc5565b610605565b34801561029357600080fd5b506102c86102a2366004610cb6565b80516020818301810180516003825292820191909301209152546001600160401b031681565b6040516001600160401b03909116815260200161013e565b3480156102ec57600080fd5b5061010d6102fb366004610d6c565b6107e3565b34801561030c57600080fd5b5061010d61031b3660046109fc565b6108e1565b61032861091c565b600480546001600160a01b0319166001600160a01b0392909216919091179055565b6001818154811061035a57600080fd5b60009182526020909120600390910201805460018201805461ffff90921693509061038490610da6565b80601f01602080910402602001604051908101604052809291908181526020018280546103b090610da6565b80156103fd5780601f106103d2576101008083540402835291602001916103fd565b820191906000526020600020905b8154815290600101906020018083116103e057829003601f168201915b50505050509080600201805461041290610da6565b80601f016020809104026020016040519081016040528092919081815260200182805461043e90610da6565b801561048b5780601f106104605761010080835404028352916020019161048b565b820191906000526020600020905b81548152906001019060200180831161046e57829003601f168201915b5050505050905083565b61049d61091c565b604051600090339047908381818185875af1925050503d80600081146104df576040519150601f19603f3d011682016040523d82523d6000602084013e6104e4565b606091505b505090508061053a5760405162461bcd60e51b815260206004820152601f60248201527f45787465726e616c526f757465723a205769746864726177206661696c65640060448201526064015b60405180910390fd5b50565b61054561091c565b61054f6000610949565b565b61055961091c565b6001546105b45760405162461bcd60e51b8152602060048201526024808201527f45787465726e616c526f757465723a204e6f206d6573736167657320696e20716044820152637565756560e01b6064820152608401610531565b60018054806105c5576105c5610de0565b600082815260208120600360001990930192830201805461ffff19168155906105f16001830182610999565b6105ff600283016000610999565b50509055565b6004546001600160a01b0316331461067a5760405162461bcd60e51b815260206004820152603260248201527f45787465726e616c526f757465723a204f6e6c79204d69645061792063616e2060448201527131b0b636103a3434b990333ab731ba34b7b760711b6064820152608401610531565b600060405180606001604052808b61ffff1681526020018a8a8080601f016020809104026020016040519081016040528093929190818152602001838380828437600092019190915250505090825250604080516020601f8b0181900481028201810190925289815291810191908a908a908190840183828082843760009201829052509390945250506001805480820182559152825160039091027fb10e2d527612073b26eecdfd717e6a320cf44b4afac2b0732d9fcbe2b7fa0cf68101805461ffff90931661ffff19909316929092178255602084015193945084939192507fb10e2d527612073b26eecdfd717e6a320cf44b4afac2b0732d9fcbe2b7fa0cf701906107889082610e42565b506040820151600282019061079d9082610e42565b5050507f4529c24563e0ed4c1a6ce04e2287e3547cc50742c8a6688fad2a9f18993284bd816040516107cf9190610f00565b60405180910390a150505050505050505050565b6107eb61091c565b6004546001600160a01b0316621d35676108086020840184610f50565b6108156020850185610f6b565b60036108246020880188610f6b565b604051610832929190610fb1565b9081526040519081900360200190208054600090610858906001600160401b0316610fc1565b91906101000a8154816001600160401b0302191690836001600160401b03160217905586806040019061088b9190610f6b565b6040518763ffffffff1660e01b81526004016108ac96959493929190611023565b600060405180830381600087803b1580156108c657600080fd5b505af11580156108da573d6000803e3d6000fd5b5050505050565b6108e961091c565b6001600160a01b03811661091357604051631e4fbdf760e01b815260006004820152602401610531565b61053a81610949565b6000546001600160a01b0316331461054f5760405163118cdaa760e01b8152336004820152602401610531565b600080546001600160a01b038381166001600160a01b0319831681178455604051919092169283917f8be0079c531659141344cd1fd0a4f28419497f9722a3daafe3b4186f6b6457e09190a35050565b5080546109a590610da6565b6000825580601f106109b5575050565b601f01602090049060005260206000209081019061053a91905b808211156109e357600081556001016109cf565b5090565b6001600160a01b038116811461053a57600080fd5b600060208284031215610a0e57600080fd5b8135610a19816109e7565b9392505050565b600060208284031215610a3257600080fd5b5035919050565b6000815180845260005b81811015610a5f57602081850181015186830182015201610a43565b506000602082860101526020601f19601f83011685010191505092915050565b61ffff84168152606060208201526000610a9c6060830185610a39565b8281036040840152610aae8185610a39565b9695505050505050565b803561ffff81168114610aca57600080fd5b919050565b60008083601f840112610ae157600080fd5b5081356001600160401b03811115610af857600080fd5b602083019150836020828501011115610b1057600080fd5b9250929050565b600080600080600080600060a0888a031215610b3257600080fd5b610b3b88610ab8565b96506020880135610b4b816109e7565b955060408801356001600160401b03811115610b6657600080fd5b610b728a828b01610acf565b90965094505060608801358015158114610b8b57600080fd5b925060808801356001600160401b03811115610ba657600080fd5b610bb28a828b01610acf565b989b979a50959850939692959293505050565b600080600080600080600080600060c08a8c031215610be357600080fd5b610bec8a610ab8565b985060208a01356001600160401b03811115610c0757600080fd5b610c138c828d01610acf565b90995097505060408a01356001600160401b03811115610c3257600080fd5b610c3e8c828d01610acf565b90975095505060608a0135610c52816109e7565b935060808a0135610c62816109e7565b925060a08a01356001600160401b03811115610c7d57600080fd5b610c898c828d01610acf565b915080935050809150509295985092959850929598565b634e487b7160e01b600052604160045260246000fd5b600060208284031215610cc857600080fd5b81356001600160401b03811115610cde57600080fd5b8201601f81018413610cef57600080fd5b80356001600160401b03811115610d0857610d08610ca0565b604051601f8201601f19908116603f011681016001600160401b0381118282101715610d3657610d36610ca0565b604052818152828201602001861015610d4e57600080fd5b81602084016020830137600091810160200191909152949350505050565b600060208284031215610d7e57600080fd5b81356001600160401b03811115610d9457600080fd5b820160608185031215610a1957600080fd5b600181811c90821680610dba57607f821691505b602082108103610dda57634e487b7160e01b600052602260045260246000fd5b50919050565b634e487b7160e01b600052603160045260246000fd5b601f821115610e3d57806000526020600020601f840160051c81016020851015610e1d5750805b601f840160051c820191505b818110156108da5760008155600101610e29565b505050565b81516001600160401b03811115610e5b57610e5b610ca0565b610e6f81610e698454610da6565b84610df6565b6020601f821160018114610ea35760008315610e8b5750848201515b600019600385901b1c1916600184901b1784556108da565b600084815260208120601f198516915b82811015610ed35787850151825560209485019460019092019101610eb3565b5084821015610ef15786840151600019600387901b60f8161c191681555b50505050600190811b01905550565b6020815261ffff82511660208201526000602083015160606040840152610f2a6080840182610a39565b90506040840151601f19848303016060850152610f478282610a39565b95945050505050565b600060208284031215610f6257600080fd5b610a1982610ab8565b6000808335601e19843603018112610f8257600080fd5b8301803591506001600160401b03821115610f9c57600080fd5b602001915036819003821315610b1057600080fd5b8183823760009101908152919050565b60006001600160401b0382166001600160401b038103610ff157634e487b7160e01b600052601160045260246000fd5b60010192915050565b81835281816020850137506000828201602090810191909152601f909101601f19169091010190565b61ffff87168152608060208201526000611041608083018789610ffa565b6001600160401b03861660408401528281036060840152611063818587610ffa565b999850505050505050505056fea26469706673582212208fda54424f5819cf40854877bb2d254a478338ebb7abd96f703fe484de30f05b64736f6c634300081c0033",
  "linkReferences": {},
  "deployedLinkReferences": {}
}